{
  "_format": "hh-sol-artifact-1",
  "contractName": "AnimeCard",
  "sourceName": "contracts/AnimeCard.sol",
  "abi": [
    {
      "inputs": [],
      "stateMutability": "nonpayable",
      "type": "constructor"
    },
    {
      "anonymous": false,
      "inputs": [
        {
          "indexed": true,
          "internalType": "address",
          "name": "owner",
          "type": "address"
        },
        {
          "indexed": true,
          "internalType": "address",
          "name": "approved",
          "type": "address"
        },
        {
          "indexed": true,
          "internalType": "uint256",
          "name": "tokenId",
          "type": "uint256"
        }
      ],
      "name": "Approval",
      "type": "event"
    },
    {
      "anonymous": false,
      "inputs": [
        {
          "indexed": true,
          "internalType": "address",
          "name": "owner",
          "type": "address"
        },
        {
          "indexed": true,
          "internalType": "address",
          "name": "operator",
          "type": "address"
        },
        {
          "indexed": false,
          "internalType": "bool",
          "name": "approved",
          "type": "bool"
        }
      ],
      "name": "ApprovalForAll",
      "type": "event"
    },
    {
      "anonymous": false,
      "inputs": [
        {
          "indexed": true,
          "internalType": "address",
          "name": "from",
          "type": "address"
        },
        {
          "indexed": true,
          "internalType": "address",
          "name": "to",
          "type": "address"
        },
        {
          "indexed": true,
          "internalType": "uint256",
          "name": "tokenId",
          "type": "uint256"
        }
      ],
      "name": "Transfer",
      "type": "event"
    },
    {
      "inputs": [
        {
          "internalType": "address",
          "name": "to",
          "type": "address"
        },
        {
          "internalType": "uint256",
          "name": "tokenId",
          "type": "uint256"
        }
      ],
      "name": "approve",
      "outputs": [],
      "stateMutability": "nonpayable",
      "type": "function"
    },
    {
      "inputs": [
        {
          "internalType": "address",
          "name": "owner",
          "type": "address"
        }
      ],
      "name": "balanceOf",
      "outputs": [
        {
          "internalType": "uint256",
          "name": "",
          "type": "uint256"
        }
      ],
      "stateMutability": "view",
      "type": "function"
    },
    {
      "inputs": [
        {
          "internalType": "uint256",
          "name": "_token_id",
          "type": "uint256"
        }
      ],
      "name": "buyAnimeCard",
      "outputs": [],
      "stateMutability": "payable",
      "type": "function"
    },
    {
      "inputs": [
        {
          "internalType": "uint256",
          "name": "tokenId",
          "type": "uint256"
        }
      ],
      "name": "getApproved",
      "outputs": [
        {
          "internalType": "address",
          "name": "",
          "type": "address"
        }
      ],
      "stateMutability": "view",
      "type": "function"
    },
    {
      "inputs": [
        {
          "internalType": "uint256",
          "name": "_token_id",
          "type": "uint256"
        },
        {
          "internalType": "address",
          "name": "_receiver",
          "type": "address"
        }
      ],
      "name": "giftAnimeCard",
      "outputs": [],
      "stateMutability": "nonpayable",
      "type": "function"
    },
    {
      "inputs": [
        {
          "internalType": "address",
          "name": "owner",
          "type": "address"
        },
        {
          "internalType": "address",
          "name": "operator",
          "type": "address"
        }
      ],
      "name": "isApprovedForAll",
      "outputs": [
        {
          "internalType": "bool",
          "name": "",
          "type": "bool"
        }
      ],
      "stateMutability": "view",
      "type": "function"
    },
    {
      "inputs": [],
      "name": "name",
      "outputs": [
        {
          "internalType": "string",
          "name": "",
          "type": "string"
        }
      ],
      "stateMutability": "view",
      "type": "function"
    },
    {
      "inputs": [
        {
          "internalType": "address",
          "name": "",
          "type": "address"
        },
        {
          "internalType": "address",
          "name": "",
          "type": "address"
        },
        {
          "internalType": "uint256",
          "name": "",
          "type": "uint256"
        },
        {
          "internalType": "bytes",
          "name": "",
          "type": "bytes"
        }
      ],
      "name": "onERC721Received",
      "outputs": [
        {
          "internalType": "bytes4",
          "name": "",
          "type": "bytes4"
        }
      ],
      "stateMutability": "pure",
      "type": "function"
    },
    {
      "inputs": [
        {
          "internalType": "uint256",
          "name": "tokenId",
          "type": "uint256"
        }
      ],
      "name": "ownerOf",
      "outputs": [
        {
          "internalType": "address",
          "name": "",
          "type": "address"
        }
      ],
      "stateMutability": "view",
      "type": "function"
    },
    {
      "inputs": [
        {
          "internalType": "uint256",
          "name": "_token_id",
          "type": "uint256"
        }
      ],
      "name": "readAnimeCard",
      "outputs": [
        {
          "internalType": "address payable",
          "name": "",
          "type": "address"
        },
        {
          "internalType": "string",
          "name": "",
          "type": "string"
        },
        {
          "internalType": "string",
          "name": "",
          "type": "string"
        },
        {
          "internalType": "uint256",
          "name": "",
          "type": "uint256"
        },
        {
          "internalType": "uint256",
          "name": "",
          "type": "uint256"
        },
        {
          "internalType": "bool",
          "name": "",
          "type": "bool"
        },
        {
          "internalType": "bool",
          "name": "",
          "type": "bool"
        }
      ],
      "stateMutability": "view",
      "type": "function"
    },
    {
      "inputs": [
        {
          "internalType": "uint256",
          "name": "_token_id",
          "type": "uint256"
        }
      ],
      "name": "removeFromMarket",
      "outputs": [],
      "stateMutability": "nonpayable",
      "type": "function"
    },
    {
      "inputs": [
        {
          "internalType": "uint256",
          "name": "_token_id",
          "type": "uint256"
        },
        {
          "internalType": "uint256",
          "name": "_price",
          "type": "uint256"
        }
      ],
      "name": "resellAnimeCard",
      "outputs": [],
      "stateMutability": "nonpayable",
      "type": "function"
    },
    {
      "inputs": [
        {
          "internalType": "address",
          "name": "to",
          "type": "address"
        },
        {
          "internalType": "string",
          "name": "uri",
          "type": "string"
        }
      ],
      "name": "safeMint",
      "outputs": [],
      "stateMutability": "nonpayable",
      "type": "function"
    },
    {
      "inputs": [
        {
          "internalType": "address",
          "name": "from",
          "type": "address"
        },
        {
          "internalType": "address",
          "name": "to",
          "type": "address"
        },
        {
          "internalType": "uint256",
          "name": "tokenId",
          "type": "uint256"
        }
      ],
      "name": "safeTransferFrom",
      "outputs": [],
      "stateMutability": "nonpayable",
      "type": "function"
    },
    {
      "inputs": [
        {
          "internalType": "address",
          "name": "from",
          "type": "address"
        },
        {
          "internalType": "address",
          "name": "to",
          "type": "address"
        },
        {
          "internalType": "uint256",
          "name": "tokenId",
          "type": "uint256"
        },
        {
          "internalType": "bytes",
          "name": "data",
          "type": "bytes"
        }
      ],
      "name": "safeTransferFrom",
      "outputs": [],
      "stateMutability": "nonpayable",
      "type": "function"
    },
    {
      "inputs": [
        {
          "internalType": "address",
          "name": "operator",
          "type": "address"
        },
        {
          "internalType": "bool",
          "name": "approved",
          "type": "bool"
        }
      ],
      "name": "setApprovalForAll",
      "outputs": [],
      "stateMutability": "nonpayable",
      "type": "function"
    },
    {
      "inputs": [
        {
          "internalType": "bytes4",
          "name": "interfaceId",
          "type": "bytes4"
        }
      ],
      "name": "supportsInterface",
      "outputs": [
        {
          "internalType": "bool",
          "name": "",
          "type": "bool"
        }
      ],
      "stateMutability": "view",
      "type": "function"
    },
    {
      "inputs": [],
      "name": "symbol",
      "outputs": [
        {
          "internalType": "string",
          "name": "",
          "type": "string"
        }
      ],
      "stateMutability": "view",
      "type": "function"
    },
    {
      "inputs": [
        {
          "internalType": "uint256",
          "name": "index",
          "type": "uint256"
        }
      ],
      "name": "tokenByIndex",
      "outputs": [
        {
          "internalType": "uint256",
          "name": "",
          "type": "uint256"
        }
      ],
      "stateMutability": "view",
      "type": "function"
    },
    {
      "inputs": [
        {
          "internalType": "address",
          "name": "owner",
          "type": "address"
        },
        {
          "internalType": "uint256",
          "name": "index",
          "type": "uint256"
        }
      ],
      "name": "tokenOfOwnerByIndex",
      "outputs": [
        {
          "internalType": "uint256",
          "name": "",
          "type": "uint256"
        }
      ],
      "stateMutability": "view",
      "type": "function"
    },
    {
      "inputs": [
        {
          "internalType": "uint256",
          "name": "token_id",
          "type": "uint256"
        }
      ],
      "name": "tokenURI",
      "outputs": [
        {
          "internalType": "string",
          "name": "",
          "type": "string"
        }
      ],
      "stateMutability": "view",
      "type": "function"
    },
    {
      "inputs": [],
      "name": "totalSupply",
      "outputs": [
        {
          "internalType": "uint256",
          "name": "",
          "type": "uint256"
        }
      ],
      "stateMutability": "view",
      "type": "function"
    },
    {
      "inputs": [
        {
          "internalType": "address",
          "name": "from",
          "type": "address"
        },
        {
          "internalType": "address",
          "name": "to",
          "type": "address"
        },
        {
          "internalType": "uint256",
          "name": "tokenId",
          "type": "uint256"
        }
      ],
      "name": "transferFrom",
      "outputs": [],
      "stateMutability": "nonpayable",
      "type": "function"
    },
    {
      "inputs": [
        {
          "internalType": "string",
          "name": "_char_name",
          "type": "string"
        },
        {
          "internalType": "string",
          "name": "_image",
          "type": "string"
        },
        {
          "internalType": "uint256",
          "name": "_price",
          "type": "uint256"
        }
      ],
      "name": "uploadCardDetails",
      "outputs": [],
      "stateMutability": "nonpayable",
      "type": "function"
    }
  ],
  "bytecode": "0x60806040523480156200001157600080fd5b506040518060400160405280600981526020017f416e696d654361726400000000000000000000000000000000000000000000008152506040518060400160405280600481526020017f414e465400000000000000000000000000000000000000000000000000000000815250816000908051906020019062000096929190620000b8565b508060019080519060200190620000af929190620000b8565b505050620001cd565b828054620000c69062000168565b90600052602060002090601f016020900481019282620000ea576000855562000136565b82601f106200010557805160ff191683800117855562000136565b8280016001018555821562000136579182015b828111156200013557825182559160200191906001019062000118565b5b50905062000145919062000149565b5090565b5b80821115620001645760008160009055506001016200014a565b5090565b600060028204905060018216806200018157607f821691505b602082108114156200019857620001976200019e565b5b50919050565b7f4e487b7100000000000000000000000000000000000000000000000000000000600052602260045260246000fd5b61477680620001dd6000396000f3fe60806040526004361061014b5760003560e01c80634f6ccce7116100b6578063b88d4fde1161006f578063b88d4fde146104de578063ba87fdba14610507578063bfc5a1b014610523578063c87b56dd1461054c578063d204c45e14610589578063e985e9c5146105b25761014b565b80634f6ccce7146103aa5780636352211e146103e75780636457bd041461042457806370a082311461044d57806395d89b411461048a578063a22cb465146104b55761014b565b806318160ddd1161010857806318160ddd146102845780631a26a474146102af57806321dc8a6a146102f257806323b872dd1461031b5780632f745c591461034457806342842e0e146103815761014b565b806301ffc9a71461015057806306fdde031461018d578063081812fc146101b8578063095ea7b3146101f5578063150b7a021461021e5780631609591c1461025b575b600080fd5b34801561015c57600080fd5b5061017760048036038101906101729190613324565b6105ef565b60405161018491906139b1565b60405180910390f35b34801561019957600080fd5b506101a2610601565b6040516101af91906139e7565b60405180910390f35b3480156101c457600080fd5b506101df60048036038101906101da91906133f5565b610693565b6040516101ec91906138cd565b60405180910390f35b34801561020157600080fd5b5061021c600480360381019061021791906132e8565b6106d9565b005b34801561022a57600080fd5b506102456004803603810190610240919061315d565b6107f1565b60405161025291906139cc565b60405180910390f35b34801561026757600080fd5b50610282600480360381019061027d919061341e565b610806565b005b34801561029057600080fd5b50610299610a6c565b6040516102a69190613ce9565b60405180910390f35b3480156102bb57600080fd5b506102d660048036038101906102d191906133f5565b610a79565b6040516102e997969594939291906138e8565b60405180910390f35b3480156102fe57600080fd5b5061031960048036038101906103149190613376565b610c8e565b005b34801561032757600080fd5b50610342600480360381019061033d919061310e565b610df0565b005b34801561035057600080fd5b5061036b600480360381019061036691906132e8565b610e50565b6040516103789190613ce9565b60405180910390f35b34801561038d57600080fd5b506103a860048036038101906103a3919061310e565b610ef5565b005b3480156103b657600080fd5b506103d160048036038101906103cc91906133f5565b610f15565b6040516103de9190613ce9565b60405180910390f35b3480156103f357600080fd5b5061040e600480360381019061040991906133f5565b610fac565b60405161041b91906138cd565b60405180910390f35b34801561043057600080fd5b5061044b600480360381019061044691906133f5565b61105e565b005b34801561045957600080fd5b50610474600480360381019061046f91906130a9565b6111f3565b6040516104819190613ce9565b60405180910390f35b34801561049657600080fd5b5061049f6112ab565b6040516104ac91906139e7565b60405180910390f35b3480156104c157600080fd5b506104dc60048036038101906104d79190613258565b61133d565b005b3480156104ea57600080fd5b50610505600480360381019061050091906131dd565b611353565b005b610521600480360381019061051c91906133f5565b6113b5565b005b34801561052f57600080fd5b5061054a6004803603810190610545919061345a565b6116d8565b005b34801561055857600080fd5b50610573600480360381019061056e91906133f5565b6118b9565b60405161058091906139e7565b60405180910390f35b34801561059557600080fd5b506105b060048036038101906105ab9190613294565b6118cb565b005b3480156105be57600080fd5b506105d960048036038101906105d491906130d2565b611962565b6040516105e691906139b1565b60405180910390f35b60006105fa826119f6565b9050919050565b60606000805461061090613f51565b80601f016020809104026020016040519081016040528092919081815260200182805461063c90613f51565b80156106895780601f1061065e57610100808354040283529160200191610689565b820191906000526020600020905b81548152906001019060200180831161066c57829003601f168201915b5050505050905090565b600061069e82611a70565b6004600083815260200190815260200160002060009054906101000a900473ffffffffffffffffffffffffffffffffffffffff169050919050565b60006106e482610fac565b90508073ffffffffffffffffffffffffffffffffffffffff168373ffffffffffffffffffffffffffffffffffffffff161415610755576040517f08c379a000000000000000000000000000000000000000000000000000000000815260040161074c90613c49565b60405180910390fd5b8073ffffffffffffffffffffffffffffffffffffffff16610774611abb565b73ffffffffffffffffffffffffffffffffffffffff1614806107a357506107a28161079d611abb565b611962565b5b6107e2576040517f08c379a00000000000000000000000000000000000000000000000000000000081526004016107d990613bc9565b60405180910390fd5b6107ec8383611ac3565b505050565b600063150b7a0260e01b905095945050505050565b81600c600082815260200190815260200160002060030154811461085f576040517f08c379a000000000000000000000000000000000000000000000000000000000815260040161085690613a49565b60405180910390fd5b82600c600082815260200190815260200160002060000160009054906101000a900473ffffffffffffffffffffffffffffffffffffffff1673ffffffffffffffffffffffffffffffffffffffff163373ffffffffffffffffffffffffffffffffffffffff1614610904576040517f08c379a00000000000000000000000000000000000000000000000000000000081526004016108fb90613c89565b60405180910390fd5b8273ffffffffffffffffffffffffffffffffffffffff163373ffffffffffffffffffffffffffffffffffffffff161415610973576040517f08c379a000000000000000000000000000000000000000000000000000000000815260040161096a90613ba9565b60405180910390fd5b600073ffffffffffffffffffffffffffffffffffffffff168373ffffffffffffffffffffffffffffffffffffffff1614610a665782600c600086815260200190815260200160002060000160006101000a81548173ffffffffffffffffffffffffffffffffffffffff021916908373ffffffffffffffffffffffffffffffffffffffff160217905550610a07338486610ef5565b6001600c600086815260200190815260200160002060050160006101000a81548160ff0219169083151502179055506000600c600086815260200190815260200160002060050160016101000a81548160ff0219169083151502179055505b50505050565b6000600880549050905090565b6000606080600080600080600c600089815260200190815260200160002060000160009054906101000a900473ffffffffffffffffffffffffffffffffffffffff16600c60008a8152602001908152602001600020600101600c60008b8152602001908152602001600020600201600c60008c815260200190815260200160002060030154600c60008d815260200190815260200160002060040154600c60008e815260200190815260200160002060050160009054906101000a900460ff16600c60008f815260200190815260200160002060050160019054906101000a900460ff16858054610b6990613f51565b80601f0160208091040260200160405190810160405280929190818152602001828054610b9590613f51565b8015610be25780601f10610bb757610100808354040283529160200191610be2565b820191906000526020600020905b815481529060010190602001808311610bc557829003601f168201915b50505050509550848054610bf590613f51565b80601f0160208091040260200160405190810160405280929190818152602001828054610c2190613f51565b8015610c6e5780601f10610c4357610100808354040283529160200191610c6e565b820191906000526020600020905b815481529060010190602001808311610c5157829003601f168201915b505050505094509650965096509650965096509650919395979092949650565b600080600190506000610c9f610a6c565b90506000610cad600b611b7c565b90506040518060e001604052803373ffffffffffffffffffffffffffffffffffffffff1681526020018881526020018781526020018281526020018681526020018515158152602001841515815250600c600084815260200190815260200160002060008201518160000160006101000a81548173ffffffffffffffffffffffffffffffffffffffff021916908373ffffffffffffffffffffffffffffffffffffffff1602179055506020820151816001019080519060200190610d72929190612e83565b506040820151816002019080519060200190610d8f929190612e83565b50606082015181600301556080820151816004015560a08201518160050160006101000a81548160ff02191690831515021790555060c08201518160050160016101000a81548160ff02191690831515021790555090505050505050505050565b610e01610dfb611abb565b82611b8a565b610e40576040517f08c379a0000000000000000000000000000000000000000000000000000000008152600401610e3790613cc9565b60405180910390fd5b610e4b838383611c1f565b505050565b6000610e5b836111f3565b8210610e9c576040517f08c379a0000000000000000000000000000000000000000000000000000000008152600401610e9390613a09565b60405180910390fd5b600660008473ffffffffffffffffffffffffffffffffffffffff1673ffffffffffffffffffffffffffffffffffffffff168152602001908152602001600020600083815260200190815260200160002054905092915050565b610f1083838360405180602001604052806000815250611353565b505050565b6000610f1f610a6c565b8210610f60576040517f08c379a0000000000000000000000000000000000000000000000000000000008152600401610f5790613c69565b60405180910390fd5b60088281548110610f9a577f4e487b7100000000000000000000000000000000000000000000000000000000600052603260045260246000fd5b90600052602060002001549050919050565b6000806002600084815260200190815260200160002060009054906101000a900473ffffffffffffffffffffffffffffffffffffffff169050600073ffffffffffffffffffffffffffffffffffffffff168173ffffffffffffffffffffffffffffffffffffffff161415611055576040517f08c379a000000000000000000000000000000000000000000000000000000000815260040161104c90613c29565b60405180910390fd5b80915050919050565b80600c60008281526020019081526020016000206003015481146110b7576040517f08c379a00000000000000000000000000000000000000000000000000000000081526004016110ae90613a49565b60405180910390fd5b81600c600082815260200190815260200160002060000160009054906101000a900473ffffffffffffffffffffffffffffffffffffffff1673ffffffffffffffffffffffffffffffffffffffff163373ffffffffffffffffffffffffffffffffffffffff161461115c576040517f08c379a000000000000000000000000000000000000000000000000000000000815260040161115390613c89565b60405180910390fd5b600c600084815260200190815260200160002060050160019054906101000a900460ff166111bf576040517f08c379a00000000000000000000000000000000000000000000000000000000081526004016111b690613b89565b60405180910390fd5b6000600c600085815260200190815260200160002060050160016101000a81548160ff021916908315150217905550505050565b60008073ffffffffffffffffffffffffffffffffffffffff168273ffffffffffffffffffffffffffffffffffffffff161415611264576040517f08c379a000000000000000000000000000000000000000000000000000000000815260040161125b90613b09565b60405180910390fd5b600360008373ffffffffffffffffffffffffffffffffffffffff1673ffffffffffffffffffffffffffffffffffffffff168152602001908152602001600020549050919050565b6060600180546112ba90613f51565b80601f01602080910402602001604051908101604052809291908181526020018280546112e690613f51565b80156113335780601f1061130857610100808354040283529160200191611333565b820191906000526020600020905b81548152906001019060200180831161131657829003601f168201915b5050505050905090565b61134f611348611abb565b8383611e86565b5050565b61136461135e611abb565b83611b8a565b6113a3576040517f08c379a000000000000000000000000000000000000000000000000000000000815260040161139a90613cc9565b60405180910390fd5b6113af84848484611ff3565b50505050565b6000600c600083815260200190815260200160002060050160009054906101000a900460ff1690506000600c600084815260200190815260200160002060050160019054906101000a900460ff1690506000600c600085815260200190815260200160002060040154905081611460576040517f08c379a000000000000000000000000000000000000000000000000000000000815260040161145790613ca9565b60405180910390fd5b82156114a1576040517f08c379a000000000000000000000000000000000000000000000000000000000815260040161149890613b29565b60405180910390fd5b600c600085815260200190815260200160002060000160009054906101000a900473ffffffffffffffffffffffffffffffffffffffff1673ffffffffffffffffffffffffffffffffffffffff163373ffffffffffffffffffffffffffffffffffffffff161415611546576040517f08c379a000000000000000000000000000000000000000000000000000000000815260040161153d90613b69565b60405180910390fd5b80341015611589576040517f08c379a000000000000000000000000000000000000000000000000000000000815260040161158090613ae9565b60405180910390fd5b600061159485610fac565b90506115a1813387611c1f565b600c600086815260200190815260200160002060000160009054906101000a900473ffffffffffffffffffffffffffffffffffffffff1673ffffffffffffffffffffffffffffffffffffffff166108fc349081150290604051600060405180830381858888f1935050505015801561161d573d6000803e3d6000fd5b5033600c600087815260200190815260200160002060000160006101000a81548173ffffffffffffffffffffffffffffffffffffffff021916908373ffffffffffffffffffffffffffffffffffffffff1602179055506001600c600087815260200190815260200160002060050160006101000a81548160ff0219169083151502179055506000600c600087815260200190815260200160002060050160016101000a81548160ff0219169083151502179055505050505050565b81600c6000828152602001908152602001600020600301548114611731576040517f08c379a000000000000000000000000000000000000000000000000000000000815260040161172890613a49565b60405180910390fd5b82600c600082815260200190815260200160002060000160009054906101000a900473ffffffffffffffffffffffffffffffffffffffff1673ffffffffffffffffffffffffffffffffffffffff163373ffffffffffffffffffffffffffffffffffffffff16146117d6576040517f08c379a00000000000000000000000000000000000000000000000000000000081526004016117cd90613c89565b60405180910390fd5b600c600085815260200190815260200160002060050160019054906101000a900460ff161561183a576040517f08c379a000000000000000000000000000000000000000000000000000000000815260040161183190613c09565b60405180910390fd5b82600c6000868152602001908152602001600020600401819055506000600c600086815260200190815260200160002060050160006101000a81548160ff0219169083151502179055506001600c600086815260200190815260200160002060050160016101000a81548160ff02191690831515021790555050505050565b60606118c48261204f565b9050919050565b6118d5600b611b7c565b600c600082815260200190815260200160002060030154811461192d576040517f08c379a000000000000000000000000000000000000000000000000000000000815260040161192490613a49565b60405180910390fd5b6119408361193b600b611b7c565b612162565b61195361194d600b611b7c565b83612180565b61195d600b6121f4565b505050565b6000600560008473ffffffffffffffffffffffffffffffffffffffff1673ffffffffffffffffffffffffffffffffffffffff16815260200190815260200160002060008373ffffffffffffffffffffffffffffffffffffffff1673ffffffffffffffffffffffffffffffffffffffff16815260200190815260200160002060009054906101000a900460ff16905092915050565b60007f780e9d63000000000000000000000000000000000000000000000000000000007bffffffffffffffffffffffffffffffffffffffffffffffffffffffff1916827bffffffffffffffffffffffffffffffffffffffffffffffffffffffff19161480611a695750611a688261220a565b5b9050919050565b611a79816122ec565b611ab8576040517f08c379a0000000000000000000000000000000000000000000000000000000008152600401611aaf90613c29565b60405180910390fd5b50565b600033905090565b816004600083815260200190815260200160002060006101000a81548173ffffffffffffffffffffffffffffffffffffffff021916908373ffffffffffffffffffffffffffffffffffffffff160217905550808273ffffffffffffffffffffffffffffffffffffffff16611b3683610fac565b73ffffffffffffffffffffffffffffffffffffffff167f8c5be1e5ebec7d5bd14f71427d1e84f3dd0314c0f7b2291e5b200ac8c7c3b92560405160405180910390a45050565b600081600001549050919050565b600080611b9683610fac565b90508073ffffffffffffffffffffffffffffffffffffffff168473ffffffffffffffffffffffffffffffffffffffff161480611bd85750611bd78185611962565b5b80611c1657508373ffffffffffffffffffffffffffffffffffffffff16611bfe84610693565b73ffffffffffffffffffffffffffffffffffffffff16145b91505092915050565b8273ffffffffffffffffffffffffffffffffffffffff16611c3f82610fac565b73ffffffffffffffffffffffffffffffffffffffff1614611c95576040517f08c379a0000000000000000000000000000000000000000000000000000000008152600401611c8c90613a69565b60405180910390fd5b600073ffffffffffffffffffffffffffffffffffffffff168273ffffffffffffffffffffffffffffffffffffffff161415611d05576040517f08c379a0000000000000000000000000000000000000000000000000000000008152600401611cfc90613aa9565b60405180910390fd5b611d10838383612358565b611d1b600082611ac3565b6001600360008573ffffffffffffffffffffffffffffffffffffffff1673ffffffffffffffffffffffffffffffffffffffff1681526020019081526020016000206000828254611d6b9190613e55565b925050819055506001600360008473ffffffffffffffffffffffffffffffffffffffff1673ffffffffffffffffffffffffffffffffffffffff1681526020019081526020016000206000828254611dc29190613dce565b92505081905550816002600083815260200190815260200160002060006101000a81548173ffffffffffffffffffffffffffffffffffffffff021916908373ffffffffffffffffffffffffffffffffffffffff160217905550808273ffffffffffffffffffffffffffffffffffffffff168473ffffffffffffffffffffffffffffffffffffffff167fddf252ad1be2c89b69c2b068fc378daa952ba7f163c4a11628f55a4df523b3ef60405160405180910390a4611e81838383612368565b505050565b8173ffffffffffffffffffffffffffffffffffffffff168373ffffffffffffffffffffffffffffffffffffffff161415611ef5576040517f08c379a0000000000000000000000000000000000000000000000000000000008152600401611eec90613ac9565b60405180910390fd5b80600560008573ffffffffffffffffffffffffffffffffffffffff1673ffffffffffffffffffffffffffffffffffffffff16815260200190815260200160002060008473ffffffffffffffffffffffffffffffffffffffff1673ffffffffffffffffffffffffffffffffffffffff16815260200190815260200160002060006101000a81548160ff0219169083151502179055508173ffffffffffffffffffffffffffffffffffffffff168373ffffffffffffffffffffffffffffffffffffffff167f17307eab39ab6107e8899845ad3d59bd9653f200f220920489ca2b5937696c3183604051611fe691906139b1565b60405180910390a3505050565b611ffe848484611c1f565b61200a8484848461236d565b612049576040517f08c379a000000000000000000000000000000000000000000000000000000000815260040161204090613a29565b60405180910390fd5b50505050565b606061205a82611a70565b6000600a6000848152602001908152602001600020805461207a90613f51565b80601f01602080910402602001604051908101604052809291908181526020018280546120a690613f51565b80156120f35780601f106120c8576101008083540402835291602001916120f3565b820191906000526020600020905b8154815290600101906020018083116120d657829003601f168201915b505050505090506000612104612504565b905060008151141561211a57819250505061215d565b60008251111561214f5780826040516020016121379291906138a9565b6040516020818303038152906040529250505061215d565b6121588461251b565b925050505b919050565b61217c828260405180602001604052806000815250612583565b5050565b612189826122ec565b6121c8576040517f08c379a00000000000000000000000000000000000000000000000000000000081526004016121bf90613b49565b60405180910390fd5b80600a600084815260200190815260200160002090805190602001906121ef929190612e83565b505050565b6001816000016000828254019250508190555050565b60007f80ac58cd000000000000000000000000000000000000000000000000000000007bffffffffffffffffffffffffffffffffffffffffffffffffffffffff1916827bffffffffffffffffffffffffffffffffffffffffffffffffffffffff191614806122d557507f5b5e139f000000000000000000000000000000000000000000000000000000007bffffffffffffffffffffffffffffffffffffffffffffffffffffffff1916827bffffffffffffffffffffffffffffffffffffffffffffffffffffffff1916145b806122e557506122e4826125de565b5b9050919050565b60008073ffffffffffffffffffffffffffffffffffffffff166002600084815260200190815260200160002060009054906101000a900473ffffffffffffffffffffffffffffffffffffffff1673ffffffffffffffffffffffffffffffffffffffff1614159050919050565b612363838383612648565b505050565b505050565b600061238e8473ffffffffffffffffffffffffffffffffffffffff1661275c565b156124f7578373ffffffffffffffffffffffffffffffffffffffff1663150b7a026123b7611abb565b8786866040518563ffffffff1660e01b81526004016123d99493929190613965565b602060405180830381600087803b1580156123f357600080fd5b505af192505050801561242457506040513d601f19601f82011682018060405250810190612421919061334d565b60015b6124a7573d8060008114612454576040519150601f19603f3d011682016040523d82523d6000602084013e612459565b606091505b5060008151141561249f576040517f08c379a000000000000000000000000000000000000000000000000000000000815260040161249690613a29565b60405180910390fd5b805181602001fd5b63150b7a0260e01b7bffffffffffffffffffffffffffffffffffffffffffffffffffffffff1916817bffffffffffffffffffffffffffffffffffffffffffffffffffffffff1916149150506124fc565b600190505b949350505050565b606060405180602001604052806000815250905090565b606061252682611a70565b6000612530612504565b90506000815111612550576040518060200160405280600081525061257b565b8061255a8461277f565b60405160200161256b9291906138a9565b6040516020818303038152906040525b915050919050565b61258d838361292c565b61259a600084848461236d565b6125d9576040517f08c379a00000000000000000000000000000000000000000000000000000000081526004016125d090613a29565b60405180910390fd5b505050565b60007f01ffc9a7000000000000000000000000000000000000000000000000000000007bffffffffffffffffffffffffffffffffffffffffffffffffffffffff1916827bffffffffffffffffffffffffffffffffffffffffffffffffffffffff1916149050919050565b612653838383612b06565b600073ffffffffffffffffffffffffffffffffffffffff168373ffffffffffffffffffffffffffffffffffffffff1614156126965761269181612b0b565b6126d5565b8173ffffffffffffffffffffffffffffffffffffffff168373ffffffffffffffffffffffffffffffffffffffff16146126d4576126d38382612b54565b5b5b600073ffffffffffffffffffffffffffffffffffffffff168273ffffffffffffffffffffffffffffffffffffffff1614156127185761271381612cc1565b612757565b8273ffffffffffffffffffffffffffffffffffffffff168273ffffffffffffffffffffffffffffffffffffffff1614612756576127558282612e04565b5b5b505050565b6000808273ffffffffffffffffffffffffffffffffffffffff163b119050919050565b606060008214156127c7576040518060400160405280600181526020017f30000000000000000000000000000000000000000000000000000000000000008152509050612927565b600082905060005b600082146127f95780806127e290613fb4565b915050600a826127f29190613e24565b91506127cf565b60008167ffffffffffffffff81111561283b577f4e487b7100000000000000000000000000000000000000000000000000000000600052604160045260246000fd5b6040519080825280601f01601f19166020018201604052801561286d5781602001600182028036833780820191505090505b5090505b60008514612920576001826128869190613e55565b9150600a856128959190613ffd565b60306128a19190613dce565b60f81b8183815181106128dd577f4e487b7100000000000000000000000000000000000000000000000000000000600052603260045260246000fd5b60200101907effffffffffffffffffffffffffffffffffffffffffffffffffffffffffffff1916908160001a905350600a856129199190613e24565b9450612871565b8093505050505b919050565b600073ffffffffffffffffffffffffffffffffffffffff168273ffffffffffffffffffffffffffffffffffffffff16141561299c576040517f08c379a000000000000000000000000000000000000000000000000000000000815260040161299390613be9565b60405180910390fd5b6129a5816122ec565b156129e5576040517f08c379a00000000000000000000000000000000000000000000000000000000081526004016129dc90613a89565b60405180910390fd5b6129f160008383612358565b6001600360008473ffffffffffffffffffffffffffffffffffffffff1673ffffffffffffffffffffffffffffffffffffffff1681526020019081526020016000206000828254612a419190613dce565b92505081905550816002600083815260200190815260200160002060006101000a81548173ffffffffffffffffffffffffffffffffffffffff021916908373ffffffffffffffffffffffffffffffffffffffff160217905550808273ffffffffffffffffffffffffffffffffffffffff16600073ffffffffffffffffffffffffffffffffffffffff167fddf252ad1be2c89b69c2b068fc378daa952ba7f163c4a11628f55a4df523b3ef60405160405180910390a4612b0260008383612368565b5050565b505050565b6008805490506009600083815260200190815260200160002081905550600881908060018154018082558091505060019003906000526020600020016000909190919091505550565b60006001612b61846111f3565b612b6b9190613e55565b9050600060076000848152602001908152602001600020549050818114612c50576000600660008673ffffffffffffffffffffffffffffffffffffffff1673ffffffffffffffffffffffffffffffffffffffff168152602001908152602001600020600084815260200190815260200160002054905080600660008773ffffffffffffffffffffffffffffffffffffffff1673ffffffffffffffffffffffffffffffffffffffff168152602001908152602001600020600084815260200190815260200160002081905550816007600083815260200190815260200160002081905550505b6007600084815260200190815260200160002060009055600660008573ffffffffffffffffffffffffffffffffffffffff1673ffffffffffffffffffffffffffffffffffffffff16815260200190815260200160002060008381526020019081526020016000206000905550505050565b60006001600880549050612cd59190613e55565b9050600060096000848152602001908152602001600020549050600060088381548110612d2b577f4e487b7100000000000000000000000000000000000000000000000000000000600052603260045260246000fd5b906000526020600020015490508060088381548110612d73577f4e487b7100000000000000000000000000000000000000000000000000000000600052603260045260246000fd5b906000526020600020018190555081600960008381526020019081526020016000208190555060096000858152602001908152602001600020600090556008805480612de8577f4e487b7100000000000000000000000000000000000000000000000000000000600052603160045260246000fd5b6001900381819060005260206000200160009055905550505050565b6000612e0f836111f3565b905081600660008573ffffffffffffffffffffffffffffffffffffffff1673ffffffffffffffffffffffffffffffffffffffff168152602001908152602001600020600083815260200190815260200160002081905550806007600084815260200190815260200160002081905550505050565b828054612e8f90613f51565b90600052602060002090601f016020900481019282612eb15760008555612ef8565b82601f10612eca57805160ff1916838001178555612ef8565b82800160010185558215612ef8579182015b82811115612ef7578251825591602001919060010190612edc565b5b509050612f059190612f09565b5090565b5b80821115612f22576000816000905550600101612f0a565b5090565b6000612f39612f3484613d29565b613d04565b905082815260208101848484011115612f5157600080fd5b612f5c848285613f0f565b509392505050565b6000612f77612f7284613d5a565b613d04565b905082815260208101848484011115612f8f57600080fd5b612f9a848285613f0f565b509392505050565b600081359050612fb1816146e4565b92915050565b600081359050612fc6816146fb565b92915050565b600081359050612fdb81614712565b92915050565b600081519050612ff081614712565b92915050565b60008083601f84011261300857600080fd5b8235905067ffffffffffffffff81111561302157600080fd5b60208301915083600182028301111561303957600080fd5b9250929050565b600082601f83011261305157600080fd5b8135613061848260208601612f26565b91505092915050565b600082601f83011261307b57600080fd5b813561308b848260208601612f64565b91505092915050565b6000813590506130a381614729565b92915050565b6000602082840312156130bb57600080fd5b60006130c984828501612fa2565b91505092915050565b600080604083850312156130e557600080fd5b60006130f385828601612fa2565b925050602061310485828601612fa2565b9150509250929050565b60008060006060848603121561312357600080fd5b600061313186828701612fa2565b935050602061314286828701612fa2565b925050604061315386828701613094565b9150509250925092565b60008060008060006080868803121561317557600080fd5b600061318388828901612fa2565b955050602061319488828901612fa2565b94505060406131a588828901613094565b935050606086013567ffffffffffffffff8111156131c257600080fd5b6131ce88828901612ff6565b92509250509295509295909350565b600080600080608085870312156131f357600080fd5b600061320187828801612fa2565b945050602061321287828801612fa2565b935050604061322387828801613094565b925050606085013567ffffffffffffffff81111561324057600080fd5b61324c87828801613040565b91505092959194509250565b6000806040838503121561326b57600080fd5b600061327985828601612fa2565b925050602061328a85828601612fb7565b9150509250929050565b600080604083850312156132a757600080fd5b60006132b585828601612fa2565b925050602083013567ffffffffffffffff8111156132d257600080fd5b6132de8582860161306a565b9150509250929050565b600080604083850312156132fb57600080fd5b600061330985828601612fa2565b925050602061331a85828601613094565b9150509250929050565b60006020828403121561333657600080fd5b600061334484828501612fcc565b91505092915050565b60006020828403121561335f57600080fd5b600061336d84828501612fe1565b91505092915050565b60008060006060848603121561338b57600080fd5b600084013567ffffffffffffffff8111156133a557600080fd5b6133b18682870161306a565b935050602084013567ffffffffffffffff8111156133ce57600080fd5b6133da8682870161306a565b92505060406133eb86828701613094565b9150509250925092565b60006020828403121561340757600080fd5b600061341584828501613094565b91505092915050565b6000806040838503121561343157600080fd5b600061343f85828601613094565b925050602061345085828601612fa2565b9150509250929050565b6000806040838503121561346d57600080fd5b600061347b85828601613094565b925050602061348c85828601613094565b9150509250929050565b61349f81613e9b565b82525050565b6134ae81613e89565b82525050565b6134bd81613ead565b82525050565b6134cc81613eb9565b82525050565b60006134dd82613d8b565b6134e78185613da1565b93506134f7818560208601613f1e565b613500816140ea565b840191505092915050565b600061351682613d96565b6135208185613db2565b9350613530818560208601613f1e565b613539816140ea565b840191505092915050565b600061354f82613d96565b6135598185613dc3565b9350613569818560208601613f1e565b80840191505092915050565b6000613582602b83613db2565b915061358d826140fb565b604082019050919050565b60006135a5603283613db2565b91506135b08261414a565b604082019050919050565b60006135c8602083613db2565b91506135d382614199565b602082019050919050565b60006135eb602583613db2565b91506135f6826141c2565b604082019050919050565b600061360e601c83613db2565b915061361982614211565b602082019050919050565b6000613631602483613db2565b915061363c8261423a565b604082019050919050565b6000613654601983613db2565b915061365f82614289565b602082019050919050565b6000613677603683613db2565b9150613682826142b2565b604082019050919050565b600061369a602983613db2565b91506136a582614301565b604082019050919050565b60006136bd601d83613db2565b91506136c882614350565b602082019050919050565b60006136e0602e83613db2565b91506136eb82614379565b604082019050919050565b6000613703602c83613db2565b915061370e826143c8565b604082019050919050565b6000613726602983613db2565b915061373182614417565b604082019050919050565b6000613749601483613db2565b915061375482614466565b602082019050919050565b600061376c603e83613db2565b91506137778261448f565b604082019050919050565b600061378f602083613db2565b915061379a826144de565b602082019050919050565b60006137b2601f83613db2565b91506137bd82614507565b602082019050919050565b60006137d5601883613db2565b91506137e082614530565b602082019050919050565b60006137f8602183613db2565b915061380382614559565b604082019050919050565b600061381b602c83613db2565b9150613826826145a8565b604082019050919050565b600061383e602183613db2565b9150613849826145f7565b604082019050919050565b6000613861602983613db2565b915061386c82614646565b604082019050919050565b6000613884602e83613db2565b915061388f82614695565b604082019050919050565b6138a381613f05565b82525050565b60006138b58285613544565b91506138c18284613544565b91508190509392505050565b60006020820190506138e260008301846134a5565b92915050565b600060e0820190506138fd600083018a613496565b818103602083015261390f818961350b565b90508181036040830152613923818861350b565b9050613932606083018761389a565b61393f608083018661389a565b61394c60a08301856134b4565b61395960c08301846134b4565b98975050505050505050565b600060808201905061397a60008301876134a5565b61398760208301866134a5565b613994604083018561389a565b81810360608301526139a681846134d2565b905095945050505050565b60006020820190506139c660008301846134b4565b92915050565b60006020820190506139e160008301846134c3565b92915050565b60006020820190508181036000830152613a01818461350b565b905092915050565b60006020820190508181036000830152613a2281613575565b9050919050565b60006020820190508181036000830152613a4281613598565b9050919050565b60006020820190508181036000830152613a62816135bb565b9050919050565b60006020820190508181036000830152613a82816135de565b9050919050565b60006020820190508181036000830152613aa281613601565b9050919050565b60006020820190508181036000830152613ac281613624565b9050919050565b60006020820190508181036000830152613ae281613647565b9050919050565b60006020820190508181036000830152613b028161366a565b9050919050565b60006020820190508181036000830152613b228161368d565b9050919050565b60006020820190508181036000830152613b42816136b0565b9050919050565b60006020820190508181036000830152613b62816136d3565b9050919050565b60006020820190508181036000830152613b82816136f6565b9050919050565b60006020820190508181036000830152613ba281613719565b9050919050565b60006020820190508181036000830152613bc28161373c565b9050919050565b60006020820190508181036000830152613be28161375f565b9050919050565b60006020820190508181036000830152613c0281613782565b9050919050565b60006020820190508181036000830152613c22816137a5565b9050919050565b60006020820190508181036000830152613c42816137c8565b9050919050565b60006020820190508181036000830152613c62816137eb565b9050919050565b60006020820190508181036000830152613c828161380e565b9050919050565b60006020820190508181036000830152613ca281613831565b9050919050565b60006020820190508181036000830152613cc281613854565b9050919050565b60006020820190508181036000830152613ce281613877565b9050919050565b6000602082019050613cfe600083018461389a565b92915050565b6000613d0e613d1f565b9050613d1a8282613f83565b919050565b6000604051905090565b600067ffffffffffffffff821115613d4457613d436140bb565b5b613d4d826140ea565b9050602081019050919050565b600067ffffffffffffffff821115613d7557613d746140bb565b5b613d7e826140ea565b9050602081019050919050565b600081519050919050565b600081519050919050565b600082825260208201905092915050565b600082825260208201905092915050565b600081905092915050565b6000613dd982613f05565b9150613de483613f05565b9250827fffffffffffffffffffffffffffffffffffffffffffffffffffffffffffffffff03821115613e1957613e1861402e565b5b828201905092915050565b6000613e2f82613f05565b9150613e3a83613f05565b925082613e4a57613e4961405d565b5b828204905092915050565b6000613e6082613f05565b9150613e6b83613f05565b925082821015613e7e57613e7d61402e565b5b828203905092915050565b6000613e9482613ee5565b9050919050565b6000613ea682613ee5565b9050919050565b60008115159050919050565b60007fffffffff0000000000000000000000000000000000000000000000000000000082169050919050565b600073ffffffffffffffffffffffffffffffffffffffff82169050919050565b6000819050919050565b82818337600083830152505050565b60005b83811015613f3c578082015181840152602081019050613f21565b83811115613f4b576000848401525b50505050565b60006002820490506001821680613f6957607f821691505b60208210811415613f7d57613f7c61408c565b5b50919050565b613f8c826140ea565b810181811067ffffffffffffffff82111715613fab57613faa6140bb565b5b80604052505050565b6000613fbf82613f05565b91507fffffffffffffffffffffffffffffffffffffffffffffffffffffffffffffffff821415613ff257613ff161402e565b5b600182019050919050565b600061400882613f05565b915061401383613f05565b9250826140235761402261405d565b5b828206905092915050565b7f4e487b7100000000000000000000000000000000000000000000000000000000600052601160045260246000fd5b7f4e487b7100000000000000000000000000000000000000000000000000000000600052601260045260246000fd5b7f4e487b7100000000000000000000000000000000000000000000000000000000600052602260045260246000fd5b7f4e487b7100000000000000000000000000000000000000000000000000000000600052604160045260246000fd5b6000601f19601f8301169050919050565b7f455243373231456e756d657261626c653a206f776e657220696e646578206f7560008201527f74206f6620626f756e6473000000000000000000000000000000000000000000602082015250565b7f4552433732313a207472616e7366657220746f206e6f6e20455243373231526560008201527f63656976657220696d706c656d656e7465720000000000000000000000000000602082015250565b7f536f7272792c20616e696d65206361726420646f6573206e6f74206578697374600082015250565b7f4552433732313a207472616e736665722066726f6d20696e636f72726563742060008201527f6f776e6572000000000000000000000000000000000000000000000000000000602082015250565b7f4552433732313a20746f6b656e20616c7265616479206d696e74656400000000600082015250565b7f4552433732313a207472616e7366657220746f20746865207a65726f2061646460008201527f7265737300000000000000000000000000000000000000000000000000000000602082015250565b7f4552433732313a20617070726f766520746f2063616c6c657200000000000000600082015250565b7f506c65617365207375626d697420612076616c696420707269636520666f722060008201527f746865206465736972656420616e696d65206361726400000000000000000000602082015250565b7f4552433732313a2061646472657373207a65726f206973206e6f74206120766160008201527f6c6964206f776e65720000000000000000000000000000000000000000000000602082015250565b7f536f7272792c20616e696d65206361726420697320736f6c64206f7574000000600082015250565b7f45524337323155524953746f726167653a2055524920736574206f66206e6f6e60008201527f6578697374656e7420746f6b656e000000000000000000000000000000000000602082015250565b7f536f72727920796f752063616e27742062757920796f75722075706c6f61646560008201527f6420616e696d6520636172640000000000000000000000000000000000000000602082015250565b7f416e696d652063617264206973206e6f7420696e20617661696c61626c65207460008201527f6865206d61726b65740000000000000000000000000000000000000000000000602082015250565b7f43616e2774206769667420596f75727273656c66000000000000000000000000600082015250565b7f4552433732313a20617070726f76652063616c6c6572206973206e6f7420746f60008201527f6b656e206f776e6572206e6f7220617070726f76656420666f7220616c6c0000602082015250565b7f4552433732313a206d696e7420746f20746865207a65726f2061646472657373600082015250565b7f4361726420616c726561647920696e20746865206d61726b6574706c61636500600082015250565b7f4552433732313a20696e76616c696420746f6b656e2049440000000000000000600082015250565b7f4552433732313a20617070726f76616c20746f2063757272656e74206f776e6560008201527f7200000000000000000000000000000000000000000000000000000000000000602082015250565b7f455243373231456e756d657261626c653a20676c6f62616c20696e646578206f60008201527f7574206f6620626f756e64730000000000000000000000000000000000000000602082015250565b7f4f6e6c7920746865206f776e6572206861732061636365737320746f2074686960008201527f7300000000000000000000000000000000000000000000000000000000000000602082015250565b7f536f7272792c20616e696d6520636172642063757272656e746c79206e6f742060008201527f617661696c61626c650000000000000000000000000000000000000000000000602082015250565b7f4552433732313a2063616c6c6572206973206e6f7420746f6b656e206f776e6560008201527f72206e6f7220617070726f766564000000000000000000000000000000000000602082015250565b6146ed81613e89565b81146146f857600080fd5b50565b61470481613ead565b811461470f57600080fd5b50565b61471b81613eb9565b811461472657600080fd5b50565b61473281613f05565b811461473d57600080fd5b5056fea2646970667358221220227e2cdea82f06ad242d7b5181944fb8a97fba9202f78d343aa5f111398f108f64736f6c63430008040033",
  "linkReferences": {},
  "deployedLinkReferences": {}
}